{
  "contractName": "Lottery",
  "abi": [
    {
      "inputs": [],
      "stateMutability": "nonpayable",
      "type": "constructor"
    },
    {
      "anonymous": false,
      "inputs": [
        {
          "indexed": false,
          "internalType": "uint256",
          "name": "index",
          "type": "uint256"
        },
        {
          "indexed": false,
          "internalType": "address",
          "name": "bettor",
          "type": "address"
        },
        {
          "indexed": false,
          "internalType": "uint256",
          "name": "amount",
          "type": "uint256"
        },
        {
          "indexed": false,
          "internalType": "bytes1",
          "name": "challenges",
          "type": "bytes1"
        },
        {
          "indexed": false,
          "internalType": "uint256",
          "name": "answerBlockNumber",
          "type": "uint256"
        }
      ],
      "name": "BET",
      "type": "event"
    },
    {
      "anonymous": false,
      "inputs": [
        {
          "indexed": false,
          "internalType": "uint256",
          "name": "index",
          "type": "uint256"
        },
        {
          "indexed": false,
          "internalType": "address",
          "name": "bettor",
          "type": "address"
        },
        {
          "indexed": false,
          "internalType": "uint256",
          "name": "amount",
          "type": "uint256"
        },
        {
          "indexed": false,
          "internalType": "bytes1",
          "name": "challenges",
          "type": "bytes1"
        },
        {
          "indexed": false,
          "internalType": "bytes1",
          "name": "answer",
          "type": "bytes1"
        },
        {
          "indexed": false,
          "internalType": "uint256",
          "name": "answerBlockNumber",
          "type": "uint256"
        }
      ],
      "name": "DRAW",
      "type": "event"
    },
    {
      "anonymous": false,
      "inputs": [
        {
          "indexed": false,
          "internalType": "uint256",
          "name": "index",
          "type": "uint256"
        },
        {
          "indexed": false,
          "internalType": "address",
          "name": "bettor",
          "type": "address"
        },
        {
          "indexed": false,
          "internalType": "uint256",
          "name": "amount",
          "type": "uint256"
        },
        {
          "indexed": false,
          "internalType": "bytes1",
          "name": "challenges",
          "type": "bytes1"
        },
        {
          "indexed": false,
          "internalType": "bytes1",
          "name": "answer",
          "type": "bytes1"
        },
        {
          "indexed": false,
          "internalType": "uint256",
          "name": "answerBlockNumber",
          "type": "uint256"
        }
      ],
      "name": "FAIL",
      "type": "event"
    },
    {
      "anonymous": false,
      "inputs": [
        {
          "indexed": false,
          "internalType": "uint256",
          "name": "index",
          "type": "uint256"
        },
        {
          "indexed": false,
          "internalType": "address",
          "name": "bettor",
          "type": "address"
        },
        {
          "indexed": false,
          "internalType": "uint256",
          "name": "amount",
          "type": "uint256"
        },
        {
          "indexed": false,
          "internalType": "bytes1",
          "name": "challenges",
          "type": "bytes1"
        },
        {
          "indexed": false,
          "internalType": "uint256",
          "name": "answerBlockNumber",
          "type": "uint256"
        }
      ],
      "name": "REFUND",
      "type": "event"
    },
    {
      "anonymous": false,
      "inputs": [
        {
          "indexed": false,
          "internalType": "uint256",
          "name": "index",
          "type": "uint256"
        },
        {
          "indexed": false,
          "internalType": "address",
          "name": "bettor",
          "type": "address"
        },
        {
          "indexed": false,
          "internalType": "uint256",
          "name": "amount",
          "type": "uint256"
        },
        {
          "indexed": false,
          "internalType": "bytes1",
          "name": "challenges",
          "type": "bytes1"
        },
        {
          "indexed": false,
          "internalType": "bytes1",
          "name": "answer",
          "type": "bytes1"
        },
        {
          "indexed": false,
          "internalType": "uint256",
          "name": "answerBlockNumber",
          "type": "uint256"
        }
      ],
      "name": "WIN",
      "type": "event"
    },
    {
      "inputs": [],
      "name": "answerForTest",
      "outputs": [
        {
          "internalType": "bytes32",
          "name": "",
          "type": "bytes32"
        }
      ],
      "stateMutability": "view",
      "type": "function",
      "constant": true
    },
    {
      "inputs": [],
      "name": "owner",
      "outputs": [
        {
          "internalType": "address payable",
          "name": "",
          "type": "address"
        }
      ],
      "stateMutability": "view",
      "type": "function",
      "constant": true
    },
    {
      "inputs": [],
      "name": "getPot",
      "outputs": [
        {
          "internalType": "uint256",
          "name": "pot",
          "type": "uint256"
        }
      ],
      "stateMutability": "view",
      "type": "function",
      "constant": true
    },
    {
      "inputs": [
        {
          "internalType": "bytes1",
          "name": "challenges",
          "type": "bytes1"
        }
      ],
      "name": "betAndDistribute",
      "outputs": [
        {
          "internalType": "bool",
          "name": "result",
          "type": "bool"
        }
      ],
      "stateMutability": "payable",
      "type": "function",
      "payable": true
    },
    {
      "inputs": [
        {
          "internalType": "bytes1",
          "name": "challenges",
          "type": "bytes1"
        }
      ],
      "name": "bet",
      "outputs": [
        {
          "internalType": "bool",
          "name": "result",
          "type": "bool"
        }
      ],
      "stateMutability": "payable",
      "type": "function",
      "payable": true
    },
    {
      "inputs": [],
      "name": "distribute",
      "outputs": [],
      "stateMutability": "nonpayable",
      "type": "function"
    },
    {
      "inputs": [
        {
          "internalType": "bytes32",
          "name": "answer",
          "type": "bytes32"
        }
      ],
      "name": "setAnswerForTest",
      "outputs": [
        {
          "internalType": "bool",
          "name": "result",
          "type": "bool"
        }
      ],
      "stateMutability": "nonpayable",
      "type": "function"
    },
    {
      "inputs": [
        {
          "internalType": "bytes1",
          "name": "challenges",
          "type": "bytes1"
        },
        {
          "internalType": "bytes32",
          "name": "answer",
          "type": "bytes32"
        }
      ],
      "name": "isMatch",
      "outputs": [
        {
          "internalType": "enum Lottery.BettingResult",
          "name": "",
          "type": "uint8"
        }
      ],
      "stateMutability": "pure",
      "type": "function",
      "constant": true
    },
    {
      "inputs": [
        {
          "internalType": "uint256",
          "name": "index",
          "type": "uint256"
        }
      ],
      "name": "getBetInfo",
      "outputs": [
        {
          "internalType": "uint256",
          "name": "answerBlockNumber",
          "type": "uint256"
        },
        {
          "internalType": "address",
          "name": "bettor",
          "type": "address"
        },
        {
          "internalType": "bytes1",
          "name": "challenges",
          "type": "bytes1"
        }
      ],
      "stateMutability": "view",
      "type": "function",
      "constant": true
    }
  ],
  "bytecode": "0x60806040526000600560006101000a81548160ff02191690831515021790555034801561002b57600080fd5b5033600360006101000a81548173ffffffffffffffffffffffffffffffffffffffff021916908373ffffffffffffffffffffffffffffffffffffffff160217905550611a0d8061007c6000396000f3fe6080604052600436106100865760003560e01c80638da5cb5b116100595780638da5cb5b1461015d57806399a167d714610188578063e16ea857146101c5578063e4fc6b6d146101f5578063f4b46f5b1461020c57610086565b8063403c9fa81461008b5780637009fa36146100b657806379141f80146100f357806384f7e4f014610132575b600080fd5b34801561009757600080fd5b506100a061023c565b6040516100ad9190611585565b60405180910390f35b3480156100c257600080fd5b506100dd60048036038101906100d891906112fa565b610246565b6040516100ea91906114d4565b60405180910390f35b3480156100ff57600080fd5b5061011a60048036038101906101159190611323565b6102e8565b604051610129939291906116b5565b60405180910390f35b34801561013e57600080fd5b506101476103e5565b60405161015491906114ef565b60405180910390f35b34801561016957600080fd5b506101726103eb565b60405161017f91906114b9565b60405180910390f35b34801561019457600080fd5b506101af60048036038101906101aa91906112be565b610411565b6040516101bc919061150a565b60405180910390f35b6101df60048036038101906101da9190611295565b610746565b6040516101ec91906114d4565b60405180910390f35b34801561020157600080fd5b5061020a610763565b005b61022660048036038101906102219190611295565b610df9565b60405161023391906114d4565b60405180910390f35b6000600454905090565b6000600360009054906101000a900473ffffffffffffffffffffffffffffffffffffffff1673ffffffffffffffffffffffffffffffffffffffff163373ffffffffffffffffffffffffffffffffffffffff16146102d8576040517f08c379a00000000000000000000000000000000000000000000000000000000081526004016102cf90611525565b60405180910390fd5b8160068190555060019050919050565b600080600080600080868152602001908152602001600020604051806060016040529081600082015481526020016001820160009054906101000a900473ffffffffffffffffffffffffffffffffffffffff1673ffffffffffffffffffffffffffffffffffffffff1673ffffffffffffffffffffffffffffffffffffffff1681526020016001820160149054906101000a900460f81b7effffffffffffffffffffffffffffffffffffffffffffffffffffffffffffff19167effffffffffffffffffffffffffffffffffffffffffffffffffffffffffffff1916815250509050806000015193508060200151925080604001519150509193909250565b60065481565b600360009054906101000a900473ffffffffffffffffffffffffffffffffffffffff1681565b6000808390506000849050600084600060208110610458577f4e487b7100000000000000000000000000000000000000000000000000000000600052603260045260246000fd5b1a60f81b905060008560006020811061049a577f4e487b7100000000000000000000000000000000000000000000000000000000600052603260045260246000fd5b1a60f81b90506004847effffffffffffffffffffffffffffffffffffffffffffffffffffffffffffff1916901c93506004847effffffffffffffffffffffffffffffffffffffffffffffffffffffffffffff1916901b93506004827effffffffffffffffffffffffffffffffffffffffffffffffffffffffffffff1916901c91506004827effffffffffffffffffffffffffffffffffffffffffffffffffffffffffffff1916901b91506004837effffffffffffffffffffffffffffffffffffffffffffffffffffffffffffff1916901b92506004837effffffffffffffffffffffffffffffffffffffffffffffffffffffffffffff1916901c92506004817effffffffffffffffffffffffffffffffffffffffffffffffffffffffffffff1916901b90506004817effffffffffffffffffffffffffffffffffffffffffffffffffffffffffffff1916901c9050837effffffffffffffffffffffffffffffffffffffffffffffffffffffffffffff1916827effffffffffffffffffffffffffffffffffffffffffffffffffffffffffffff191614801561067e5750827effffffffffffffffffffffffffffffffffffffffffffffffffffffffffffff1916817effffffffffffffffffffffffffffffffffffffffffffffffffffffffffffff1916145b15610690576001945050505050610740565b837effffffffffffffffffffffffffffffffffffffffffffffffffffffffffffff1916827effffffffffffffffffffffffffffffffffffffffffffffffffffffffffffff191614806107255750827effffffffffffffffffffffffffffffffffffffffffffffffffffffffffffff1916817effffffffffffffffffffffffffffffffffffffffffffffffffffffffffffff1916145b15610737576002945050505050610740565b60009450505050505b92915050565b600061075182610df9565b5061075a610763565b60019050919050565b60008061076e6111fd565b60008060015494505b600254851015610deb57600080868152602001908152602001600020604051806060016040529081600082015481526020016001820160009054906101000a900473ffffffffffffffffffffffffffffffffffffffff1673ffffffffffffffffffffffffffffffffffffffff1673ffffffffffffffffffffffffffffffffffffffff1681526020016001820160149054906101000a900460f81b7effffffffffffffffffffffffffffffffffffffffffffffffffffffffffffff19167effffffffffffffffffffffffffffffffffffffffffffffffffffffffffffff19168152505092506108688360000151610eee565b9150600060028111156108a4577f4e487b7100000000000000000000000000000000000000000000000000000000600052602160045260246000fd5b8260028111156108dd577f4e487b7100000000000000000000000000000000000000000000000000000000600052602160045260246000fd5b1415610c755760006108f28460000151610f4c565b9050610902846040015182610411565b91506001600281111561093e577f4e487b7100000000000000000000000000000000000000000000000000000000600052602160045260246000fd5b826002811115610977577f4e487b7100000000000000000000000000000000000000000000000000000000600052602160045260246000fd5b1415610a345761099f84602001516611c37937e0800060045461099a9190611750565b610f74565b945060006004819055507f8219079e2d6c1192fb0ff7f78e6faaf5528ad6687e69749205d87bd4b156912b86856020015187876040015185600060208110610a10577f4e487b7100000000000000000000000000000000000000000000000000000000600052603260045260246000fd5b1a60f81b8960000151604051610a2b96959493929190611601565b60405180910390a15b60006002811115610a6e577f4e487b7100000000000000000000000000000000000000000000000000000000600052602160045260246000fd5b826002811115610aa7577f4e487b7100000000000000000000000000000000000000000000000000000000600052602160045260246000fd5b1415610b59576611c37937e0800060046000828254610ac69190611750565b925050819055507f3b19d607433249d2ebc766ae82ca3848e9c064f1febb5147bc6e5b21d0adebc58685602001516000876040015185600060208110610b35577f4e487b7100000000000000000000000000000000000000000000000000000000600052603260045260246000fd5b1a60f81b8960000151604051610b50969594939291906115a0565b60405180910390a15b600280811115610b92577f4e487b7100000000000000000000000000000000000000000000000000000000600052602160045260246000fd5b826002811115610bcb577f4e487b7100000000000000000000000000000000000000000000000000000000600052602160045260246000fd5b1415610c7357610be684602001516611c37937e08000610f74565b94507f72ec2e949e4fad9380f9d5db3e2ed0e71cf22c51d8d66424508bdc761a3f4b0e86856020015187876040015185600060208110610c4f577f4e487b7100000000000000000000000000000000000000000000000000000000600052603260045260246000fd5b1a60f81b8960000151604051610c6a96959493929190611601565b60405180910390a15b505b60016002811115610caf577f4e487b7100000000000000000000000000000000000000000000000000000000600052602160045260246000fd5b826002811115610ce8577f4e487b7100000000000000000000000000000000000000000000000000000000600052602160045260246000fd5b1415610cf357610deb565b600280811115610d2c577f4e487b7100000000000000000000000000000000000000000000000000000000600052602160045260246000fd5b826002811115610d65577f4e487b7100000000000000000000000000000000000000000000000000000000600052602160045260246000fd5b1415610dce57610d8083602001516611c37937e08000610f74565b93507f59c0185881271a0f53d43e6ab9310091408f9e0ff9ae2512613de800f26b8de48584602001518686604001518760000151604051610dc5959493929190611662565b60405180910390a15b610dd785611046565b508480610de3906118d7565b955050610777565b846001819055505050505050565b60006611c37937e080003414610e44576040517f08c379a0000000000000000000000000000000000000000000000000000000008152600401610e3b90611545565b60405180910390fd5b610e4d826110a9565b610e8c576040517f08c379a0000000000000000000000000000000000000000000000000000000008152600401610e8390611565565b60405180910390fd5b7f100791de9f40bf2d56ffa6dc5597d2fd0b2703ea70bc7548cd74c04f5d215ab76001600254610ebc91906117a6565b333485600343610ecc9190611750565b604051610edd9594939291906116ec565b60405180910390a160019050919050565b60008143118015610f0b575081610100610f089190611750565b43105b15610f195760009050610f47565b814311610f295760019050610f47565b81610100610f379190611750565b4310610f465760029050610f47565b5b919050565b6000600560009054906101000a900460ff16610f6a57600654610f6d565b81405b9050919050565b6000806000905060008184610f8991906117a6565b90508473ffffffffffffffffffffffffffffffffffffffff166108fc829081150290604051600060405180830381858888f19350505050158015610fd1573d6000803e3d6000fd5b50600360009054906101000a900473ffffffffffffffffffffffffffffffffffffffff1673ffffffffffffffffffffffffffffffffffffffff166108fc839081150290604051600060405180830381858888f1935050505015801561103a573d6000803e3d6000fd5b50809250505092915050565b60008060008381526020019081526020016000206000808201600090556001820160006101000a81549073ffffffffffffffffffffffffffffffffffffffff02191690556001820160146101000a81549060ff0219169055505060019050919050565b60006110b36111fd565b33816020019073ffffffffffffffffffffffffffffffffffffffff16908173ffffffffffffffffffffffffffffffffffffffff16815250506003436110f89190611750565b8160000181815250508281604001907effffffffffffffffffffffffffffffffffffffffffffffffffffffffffffff191690817effffffffffffffffffffffffffffffffffffffffffffffffffffffffffffff1916815250508060008060025481526020019081526020016000206000820151816000015560208201518160010160006101000a81548173ffffffffffffffffffffffffffffffffffffffff021916908373ffffffffffffffffffffffffffffffffffffffff16021790555060408201518160010160146101000a81548160ff021916908360f81c0217905550905050600260008154809291906111ee906118d7565b91905055506001915050919050565b604051806060016040528060008152602001600073ffffffffffffffffffffffffffffffffffffffff16815260200160007effffffffffffffffffffffffffffffffffffffffffffffffffffffffffffff191681525090565b60008135905061126581611992565b92915050565b60008135905061127a816119a9565b92915050565b60008135905061128f816119c0565b92915050565b6000602082840312156112a757600080fd5b60006112b584828501611256565b91505092915050565b600080604083850312156112d157600080fd5b60006112df85828601611256565b92505060206112f08582860161126b565b9150509250929050565b60006020828403121561130c57600080fd5b600061131a8482850161126b565b91505092915050565b60006020828403121561133557600080fd5b600061134384828501611280565b91505092915050565b6113558161187d565b82525050565b611364816117ec565b82525050565b611373816117da565b82525050565b611382816117fe565b82525050565b6113918161180a565b82525050565b6113a081611836565b82525050565b6113af8161188f565b82525050565b6113be816118a1565b82525050565b60006113d1602b8361173f565b91507f4f6e6c79206f776e65722063616e207365742074686520616e7377657220666f60008301527f722074657374206d6f64650000000000000000000000000000000000000000006020830152604082019050919050565b6000611437600e8361173f565b91507f4e6f7420656e6f756768204554480000000000000000000000000000000000006000830152602082019050919050565b6000611477601a8361173f565b91507f4661696c20746f206164642061206e65772042657420496e666f0000000000006000830152602082019050919050565b6114b381611873565b82525050565b60006020820190506114ce600083018461135b565b92915050565b60006020820190506114e96000830184611379565b92915050565b60006020820190506115046000830184611397565b92915050565b600060208201905061151f60008301846113a6565b92915050565b6000602082019050818103600083015261153e816113c4565b9050919050565b6000602082019050818103600083015261155e8161142a565b9050919050565b6000602082019050818103600083015261157e8161146a565b9050919050565b600060208201905061159a60008301846114aa565b92915050565b600060c0820190506115b560008301896114aa565b6115c2602083018861134c565b6115cf60408301876113b5565b6115dc6060830186611388565b6115e96080830185611388565b6115f660a08301846114aa565b979650505050505050565b600060c08201905061161660008301896114aa565b611623602083018861134c565b61163060408301876114aa565b61163d6060830186611388565b61164a6080830185611388565b61165760a08301846114aa565b979650505050505050565b600060a08201905061167760008301886114aa565b611684602083018761134c565b61169160408301866114aa565b61169e6060830185611388565b6116ab60808301846114aa565b9695505050505050565b60006060820190506116ca60008301866114aa565b6116d7602083018561136a565b6116e46040830184611388565b949350505050565b600060a08201905061170160008301886114aa565b61170e602083018761136a565b61171b60408301866114aa565b6117286060830185611388565b61173560808301846114aa565b9695505050505050565b600082825260208201905092915050565b600061175b82611873565b915061176683611873565b9250827fffffffffffffffffffffffffffffffffffffffffffffffffffffffffffffffff0382111561179b5761179a611920565b5b828201905092915050565b60006117b182611873565b91506117bc83611873565b9250828210156117cf576117ce611920565b5b828203905092915050565b60006117e582611853565b9050919050565b60006117f782611853565b9050919050565b60008115159050919050565b60007fff0000000000000000000000000000000000000000000000000000000000000082169050919050565b6000819050919050565b600081905061184e8261197e565b919050565b600073ffffffffffffffffffffffffffffffffffffffff82169050919050565b6000819050919050565b6000611888826118b3565b9050919050565b600061189a82611840565b9050919050565b60006118ac82611873565b9050919050565b60006118be826118c5565b9050919050565b60006118d082611853565b9050919050565b60006118e282611873565b91507fffffffffffffffffffffffffffffffffffffffffffffffffffffffffffffffff82141561191557611914611920565b5b600182019050919050565b7f4e487b7100000000000000000000000000000000000000000000000000000000600052601160045260246000fd5b7f4e487b7100000000000000000000000000000000000000000000000000000000600052602160045260246000fd5b6003811061198f5761198e61194f565b5b50565b61199b8161180a565b81146119a657600080fd5b50565b6119b281611836565b81146119bd57600080fd5b50565b6119c981611873565b81146119d457600080fd5b5056fea2646970667358221220522cc87d22e902da5b5f2bdb07fd321189e5f216c88d6bd64797c9e7fa72a1b564736f6c63430008000033",
  "immutableReferences": {},
  "source": "// SPDX-License-Identifier: MIT\r\npragma solidity 0.8.0;\r\n\r\ncontract Lottery {\r\n\r\n    struct BetInfo { //\r\n        uint256 answerBlockNumber; //    \r\n        address payable bettor; //   *payable   (trasfer )\r\n        bytes1 challenges; //   \r\n    }\r\n\r\n    // _bets  queue   _tail     .\r\n    //     head   .\r\n    mapping (uint256 => BetInfo) private _bets; // BetInfo struct   queue .\r\n    uint256 private _head;\r\n    uint256 private _tail;\r\n\r\n    // bettor  \r\n    address payable public owner;\r\n    \r\n    //   \r\n    uint256 constant internal BLOCK_LIMIT = 256; //      \r\n    uint256 constant internal BET_BLOCK_INTERVAL = 3; // 3 \r\n\t// 1 * 10 ** 18 = 1 eth\r\n\tuint256 constant internal BET_AMOUNT = 5 * 10 ** 15; // 0.005 eth\r\n    ////\r\n\r\n    uint256 private _pot; //     = \r\n\r\n    bool private mode = false; // false : use answer for test, true : use real block hash\r\n    bytes32 public answerForTest;\r\n\r\n\r\n    // enum  {0, 1, 2 ...}\r\n    // 1.   2.   3.  \r\n    enum BlockStatus {Checkable, NotRevealed, BlockLimitpassed}\r\n\r\n    // 1.  2.  3. \r\n    enum BettingResult {Fail, Win, Draw}\r\n\r\n    //    function  \r\n    //     .\r\n    // web3.js       .\r\n    //  ,  , ,  ,    \r\n    event BET(uint256 index, address bettor, uint256 amount, bytes1 challenges, uint256 answerBlockNumber);\r\n    event WIN(uint256 index, address bettor, uint256 amount, bytes1 challenges, bytes1 answer, uint256 answerBlockNumber);\r\n    event FAIL(uint256 index, address bettor, uint256 amount, bytes1 challenges, bytes1 answer, uint256 answerBlockNumber);\r\n    event DRAW(uint256 index, address bettor, uint256 amount, bytes1 challenges, bytes1 answer, uint256 answerBlockNumber);\r\n    event REFUND(uint256 index, address bettor, uint256 amount, bytes1 challenges, uint256 answerBlockNumber);\r\n\r\n    constructor() public {\r\n        owner = payable(msg.sender);\r\n    }\r\n\r\n    // function getSomeValue() public pure returns (uint256 value) {\r\n    //     return 5;\r\n        \r\n    // }\r\n\r\n    //    \r\n    function getPot() public view returns (uint256 pot) {\r\n        return _pot;\r\n    }\r\n\r\n    //   \r\n    function betAndDistribute(bytes1 challenges) public payable returns (bool result) {\r\n        bet(challenges);\r\n\r\n        distribute();\r\n\r\n        return true;\r\n    }\r\n\r\n    \r\n    // Bet\r\n    // save the bet to the queue\r\n    //    \r\n\r\n    /**\r\n    * @dev  .  0.05 ETH  ,  1 byte  .\r\n    *      distribute  .\r\n    * @param challenges  1 byte  (  )\r\n    * @return result     bool \r\n     */\r\n    function bet(bytes1 challenges) public payable returns (bool result) { // payable       .\r\n        // check money is sent\r\n        //  \r\n        require(msg.value == BET_AMOUNT, \"Not enough ETH\");\r\n\r\n        // push bet to the queue\r\n        //  \r\n        require(pushBet(challenges), \"Fail to add a new Bet Info\");\r\n\r\n        // emit event\r\n        emit BET(_tail - 1, msg.sender, msg.value, challenges, block.number + BET_BLOCK_INTERVAL);\r\n\r\n        return true;\r\n\r\n    }\r\n\r\n    /**\r\n     * @dev      .\r\n     *   :  ,   :  ,   or    :   \r\n     */\r\n    //Distribute\r\n    // check the answer\r\n    //     +  \r\n    function distribute() public {\r\n        // head 3 4 5 6 7 8 9 10 11 tail <- insert\r\n        // 3   ->  ->   -> 3 pop\r\n        // 4, 5, 6   ->         .\r\n        //     (256   ) ->   .\r\n\r\n        //    \r\n        //  \r\n        uint256 cur;\r\n        //  \r\n        uint256 transferAmount;\r\n        \r\n        BetInfo memory b;\r\n\r\n        //     --> enum BlockStatus {Checkable, NotRevealed, BlockLimitpassed}\r\n        BlockStatus currentBlockStatus;\r\n\r\n        //    --> enum BettingResult {Fail, Win, Draw}\r\n        BettingResult currentBettingResult;\r\n\r\n\r\n        for(cur = _head; cur < _tail; cur++) {\r\n            b = _bets[cur];\r\n            currentBlockStatus = getBlockStatus(b.answerBlockNumber);\r\n            // Checkable :     ----------------------------------------> 1\r\n\r\n            // 1.          \r\n            // block.number > AnswerBlockNumber\r\n            // 2.    (  +   )    \r\n            // block.number <= BLOCK_LIMIT + AnswerBlockNumber\r\n            // => AnswerBlockNumber < block.number <= BLOCK_LIMIT + AnswerBlockNumber\r\n            // -----------------------------------------------------------------------------\r\n            if(currentBlockStatus == BlockStatus.Checkable) {\r\n\r\n                // block.blockhash(uint blockNumber) returns (bytes32) -    \r\n                bytes32 answerBlockHash = getAnserBlockHash(b.answerBlockNumber);\r\n                currentBettingResult = isMatch(b.challenges, answerBlockHash);\r\n\r\n                //   .\r\n                if ( currentBettingResult == BettingResult.Win) {\r\n                    //   \r\n                    transferAmount = transferAfterPayingFee(b.bettor, _pot + BET_AMOUNT);\r\n\r\n                    // pot = 0\r\n                    _pot = 0;\r\n\r\n                    // emit WIN\r\n                    emit WIN(cur, b.bettor, transferAmount, b.challenges, answerBlockHash[0], b.answerBlockNumber);\r\n                }\r\n\r\n                //     .\r\n                if ( currentBettingResult == BettingResult.Fail) {\r\n                    // pot = pot + BET_AMOUNT\r\n                    _pot += BET_AMOUNT;\r\n\r\n                    // emit FAIL\r\n                    emit FAIL(cur, b.bettor, 0, b.challenges, answerBlockHash[0], b.answerBlockNumber);\r\n\r\n\r\n                }\r\n                \r\n                \r\n                //    .\r\n                if ( currentBettingResult == BettingResult.Draw) {\r\n                    //   \r\n                    transferAmount = transferAfterPayingFee(b.bettor, BET_AMOUNT);\r\n\r\n                    // emit DRAW\r\n                    emit DRAW(cur, b.bettor, transferAmount, b.challenges, answerBlockHash[0], b.answerBlockNumber);\r\n\r\n                }                \r\n            }\r\n\r\n            //     =      \r\n\r\n            // 1.       --------------------------------------------> 2\r\n            //      \r\n            // block.number <= AnswerBlockNumber\r\n            if(currentBlockStatus == BlockStatus.NotRevealed) {\r\n                break;\r\n            }\r\n\r\n\r\n            // 2.   (256)   -------------------------------------------------> 3\r\n            // block.number >= BLOCK_LIMIT + AnswerBlockNumber\r\n            if(currentBlockStatus == BlockStatus.BlockLimitpassed) {\r\n                // refund\r\n                transferAmount = transferAfterPayingFee(b.bettor, BET_AMOUNT);\r\n\r\n\r\n                //emit refund\r\n                emit REFUND(cur, b.bettor, transferAmount, b.challenges, b.answerBlockNumber);\r\n\r\n            }\r\n\r\n            // -------------------------------------------------------------------------------\r\n\r\n\r\n            popBet(cur);\r\n        }\r\n\r\n        // queue \r\n        _head = cur;\r\n\r\n    }\r\n\r\n\r\n    //    ,     \r\n    function transferAfterPayingFee(address payable addr, uint256 amount) internal returns (uint256) {\r\n        \r\n        // uint256 fee = amount / 100;\r\n        uint256 fee = 0;\r\n        uint256 amountWithoutFee = amount - fee;\r\n\r\n        // transfer to addr\r\n        //   \r\n        addr.transfer(amountWithoutFee);\r\n\r\n        // transfer to owner\r\n        //   \r\n        owner.transfer(fee);\r\n\r\n        // ether  = call, send, transfer\r\n        // transfer :      = \r\n        // send :   fail  ->  \r\n        // call :   function   ->     \r\n\r\n        return amountWithoutFee;\r\n    }\r\n\r\n    function setAnswerForTest(bytes32 answer) public returns (bool result) {\r\n        require(msg.sender == owner, \"Only owner can set the answer for test mode\");\r\n        answerForTest = answer;\r\n        return true;\r\n    }\r\n\r\n    // mode : true -> blockhash   -> real block hash use\r\n    // mode : false ->       -> test\r\n    function getAnserBlockHash(uint256 answerBlockNumber) internal view returns (bytes32 answer) {\r\n        return mode ? blockhash(answerBlockNumber) : answerForTest;\r\n    }\r\n\r\n    /**\r\n    @dev   \r\n    @param challenges  \r\n    @param answer  \r\n    @return  \r\n     */\r\n    function isMatch(bytes1 challenges, bytes32 answer) public pure returns (BettingResult) {\r\n        // challenges = 0xab = 1bytes\r\n        // answer = 0xab...ff = 32bytes\r\n\r\n        bytes1 c1 = challenges;\r\n        bytes1 c2 = challenges;\r\n\r\n        bytes1 a1 = answer[0];\r\n        bytes1 a2 = answer[0];\r\n\r\n        // Get first number\r\n        // shift  4bit shift\r\n        c1 = c1 >> 4; // 0xab -> 0x0a\r\n        c1 = c1 << 4; // 0x0a -> 0xa0\r\n\r\n        a1 = a1 >> 4;\r\n        a1 = a1 << 4;\r\n\r\n        c2 = c2 << 4; // 0xab -> 0xb0\r\n        c2 = c2 >> 4; // 0xb0 -> 0x0b\r\n\r\n        a2 = a2 << 4;\r\n        a2 = a2 >> 4;\r\n\r\n        if(a1 == c1 && a2 == c2) {\r\n            return BettingResult.Win;\r\n        }\r\n\r\n        if( a1 == c1 || a2 == c2 ) {\r\n            return BettingResult.Draw;\r\n        }\r\n        \r\n        return BettingResult.Fail;\r\n    }\r\n\r\n    function getBlockStatus(uint256 answerBlockNumber) internal view returns (BlockStatus) {\r\n        // case 1\r\n        if(block.number > answerBlockNumber && block.number < BLOCK_LIMIT + answerBlockNumber) {\r\n            return BlockStatus.Checkable;\r\n        }\r\n\r\n        // case 2\r\n        if(block.number <= answerBlockNumber) {\r\n            return BlockStatus.NotRevealed;\r\n        }\r\n\r\n        // case 3\r\n        if(block.number >= BLOCK_LIMIT + answerBlockNumber) {\r\n            return BlockStatus.BlockLimitpassed;\r\n        }\r\n    }\r\n\r\n\r\n    //   \r\n    // view =   \r\n    function getBetInfo(uint256 index) public view returns (uint256 answerBlockNumber, address bettor, bytes1 challenges) {\r\n        BetInfo memory b = _bets[index];\r\n        answerBlockNumber = b.answerBlockNumber;\r\n        bettor = payable(b.bettor);\r\n        challenges = b.challenges;\r\n    }\r\n\r\n    //   \r\n    function pushBet(bytes1 challenges) internal returns (bool result) {\r\n        \r\n        // BetInfo structure memory  b\r\n        BetInfo memory b;\r\n\r\n        b.bettor = payable(msg.sender); // 20 byte\r\n\r\n        // block.number =        \r\n        b.answerBlockNumber = block.number + BET_BLOCK_INTERVAL; // 32byte  20000 gas\r\n        b.challenges = challenges; // byte // 20000 gas\r\n\r\n        // queue  tail index \r\n        _bets[_tail] = b;\r\n        // tail   = length \r\n        _tail++; // 32byte   // 20000 gas -> 5000 gas\r\n        return true;\r\n    }\r\n\r\n    //       .\r\n    function popBet(uint256 index) internal returns (bool) {\r\n        delete _bets[index];\r\n        return true;\r\n    }\r\n}",
  "sourcePath": "C:\\Users\\HanaTI\\Desktop\\Project\\lottery-smart-contract-practice\\contracts\\Lottery.sol",
  "compiler": {
    "name": "solc",
    "version": "0.8.0+commit.c7dfd78e.Emscripten.clang"
  },
  "schemaVersion": "3.4.14",
  "updatedAt": "2023-08-08T06:23:26.456Z",
  "networkType": "ethereum",
  "devdoc": {
    "kind": "dev",
    "methods": {
      "bet(bytes1)": {
        "details": " .  0.05 ETH  ,  1 byte  .      distribute  .",
        "params": {
          "challenges": " 1 byte  (  )"
        },
        "returns": {
          "result": "    bool "
        }
      },
      "distribute()": {
        "details": "     .   :  ,   :  ,   or    :   "
      },
      "isMatch(bytes1,bytes32)": {
        "details": "  ",
        "params": {
          "answer": " ",
          "challenges": " "
        },
        "returns": {
          "_0": " "
        }
      }
    },
    "version": 1
  },
  "userdoc": {
    "kind": "user",
    "methods": {},
    "version": 1
  }
}